{
  "_format": "hh-sol-artifact-1",
  "contractName": "XPost",
  "sourceName": "contracts/XPost.sol",
  "abi": [
    {
      "inputs": [],
      "stateMutability": "payable",
      "type": "constructor"
    },
    {
      "anonymous": false,
      "inputs": [
        {
          "indexed": true,
          "internalType": "address",
          "name": "from",
          "type": "address"
        },
        {
          "indexed": false,
          "internalType": "uint256",
          "name": "timestamp",
          "type": "uint256"
        },
        {
          "indexed": false,
          "internalType": "string",
          "name": "message",
          "type": "string"
        }
      ],
      "name": "NewPost",
      "type": "event"
    },
    {
      "inputs": [
        {
          "internalType": "string",
          "name": "_message",
          "type": "string"
        }
      ],
      "name": "createPost",
      "outputs": [],
      "stateMutability": "nonpayable",
      "type": "function"
    },
    {
      "inputs": [],
      "name": "getTotalPosts",
      "outputs": [
        {
          "internalType": "uint256",
          "name": "",
          "type": "uint256"
        }
      ],
      "stateMutability": "view",
      "type": "function"
    },
    {
      "inputs": [
        {
          "internalType": "address",
          "name": "",
          "type": "address"
        }
      ],
      "name": "lastPostedAt",
      "outputs": [
        {
          "internalType": "uint256",
          "name": "",
          "type": "uint256"
        }
      ],
      "stateMutability": "view",
      "type": "function"
    }
  ],
  "bytecode": "0x60806040526200004a6040518060400160405280601081526020017f436f6e747261746f2063726961646f21000000000000000000000000000000008152506200007260201b60201c565b606444426200005a9190620001b8565b62000066919062000222565b60018190555062000347565b6200011281604051602401620000899190620002f4565b6040516020818303038152906040527f41304fac000000000000000000000000000000000000000000000000000000007bffffffffffffffffffffffffffffffffffffffffffffffffffffffff19166020820180517bffffffffffffffffffffffffffffffffffffffffffffffffffffffff83818316178352505050506200011560201b60201c565b50565b6200013b81620001366200013e60201b62000486176200015f60201b60201c565b60201c565b50565b60006a636f6e736f6c652e6c6f679050600080835160208501845afa505050565b6200017360201b6200060417819050919050565b6200017d62000318565b565b6000819050919050565b7f4e487b7100000000000000000000000000000000000000000000000000000000600052601160045260246000fd5b6000620001c5826200017f565b9150620001d2836200017f565b9250828201905080821115620001ed57620001ec62000189565b5b92915050565b7f4e487b7100000000000000000000000000000000000000000000000000000000600052601260045260246000fd5b60006200022f826200017f565b91506200023c836200017f565b9250826200024f576200024e620001f3565b5b828206905092915050565b600081519050919050565b600082825260208201905092915050565b60005b838110156200029657808201518184015260208101905062000279565b60008484015250505050565b6000601f19601f8301169050919050565b6000620002c0826200025a565b620002cc818562000265565b9350620002de81856020860162000276565b620002e981620002a2565b840191505092915050565b60006020820190508181036000830152620003108184620002b3565b905092915050565b7f4e487b7100000000000000000000000000000000000000000000000000000000600052605160045260246000fd5b610f6a80620003576000396000f3fe608060405234801561001057600080fd5b50600436106100415760003560e01c806351493c4f146100465780635fe226b414610076578063c7303c6114610094575b600080fd5b610060600480360381019061005b9190610680565b6100b0565b60405161006d91906106c6565b60405180910390f35b61007e6100c8565b60405161008b91906106c6565b60405180910390f35b6100ae60048036038101906100a99190610827565b610113565b005b60036020528060005260406000206000915090505481565b600061010b6040518060400160405280601781526020017f45752074656e686f202573207075626c696361636f65730000000000000000008152506000546104a7565b600054905090565b42601e600360003373ffffffffffffffffffffffffffffffffffffffff1673ffffffffffffffffffffffffffffffffffffffff16815260200190815260200160002054610160919061089f565b106101a0576040517f08c379a000000000000000000000000000000000000000000000000000000000815260040161019790610956565b60405180910390fd5b42600360003373ffffffffffffffffffffffffffffffffffffffff1673ffffffffffffffffffffffffffffffffffffffff1681526020019081526020016000208190555060016000808282546101f6919061089f565b92505081905550600260405180606001604052803373ffffffffffffffffffffffffffffffffffffffff16815260200183815260200142815250908060018154018082558091505060019003906000526020600020906003020160009091909190915060008201518160000160006101000a81548173ffffffffffffffffffffffffffffffffffffffff021916908373ffffffffffffffffffffffffffffffffffffffff16021790555060208201518160010190816102b59190610b8d565b50604082015181600201555050606460015442446102d3919061089f565b6102dd919061089f565b6102e79190610c8e565b600181905550603260015411610433576103366040518060400160405280602081526020017f25732067616e686f75206f207072656d696f20646520302e303030312065746881525033610543565b6000655af3107a4000905047811115610384576040517f08c379a000000000000000000000000000000000000000000000000000000000815260040161037b90610d31565b60405180910390fd5b60003373ffffffffffffffffffffffffffffffffffffffff16826040516103aa90610d82565b60006040518083038185875af1925050503d80600081146103e7576040519150601f19603f3d011682016040523d82523d6000602084013e6103ec565b606091505b5050905080610430576040517f08c379a000000000000000000000000000000000000000000000000000000000815260040161042790610de3565b60405180910390fd5b50505b3373ffffffffffffffffffffffffffffffffffffffff167fd8c86c7877c3f1f8a40af6cf64a11fe867af887f2a1ad31aac849e36730425b0428360405161047b929190610e66565b60405180910390a250565b60006a636f6e736f6c652e6c6f679050600080835160208501845afa505050565b61053f82826040516024016104bd929190610e96565b6040516020818303038152906040527fb60e72cc000000000000000000000000000000000000000000000000000000007bffffffffffffffffffffffffffffffffffffffffffffffffffffffff19166020820180517bffffffffffffffffffffffffffffffffffffffffffffffffffffffff83818316178352505050506105df565b5050565b6105db8282604051602401610559929190610ed5565b6040516020818303038152906040527f319af333000000000000000000000000000000000000000000000000000000007bffffffffffffffffffffffffffffffffffffffffffffffffffffffff19166020820180517bffffffffffffffffffffffffffffffffffffffffffffffffffffffff83818316178352505050506105df565b5050565b6105f6816105ee6104866105f9565b63ffffffff16565b50565b610604819050919050565b61060c610f05565b565b6000604051905090565b600080fd5b600080fd5b600073ffffffffffffffffffffffffffffffffffffffff82169050919050565b600061064d82610622565b9050919050565b61065d81610642565b811461066857600080fd5b50565b60008135905061067a81610654565b92915050565b60006020828403121561069657610695610618565b5b60006106a48482850161066b565b91505092915050565b6000819050919050565b6106c0816106ad565b82525050565b60006020820190506106db60008301846106b7565b92915050565b600080fd5b600080fd5b6000601f19601f8301169050919050565b7f4e487b7100000000000000000000000000000000000000000000000000000000600052604160045260246000fd5b610734826106eb565b810181811067ffffffffffffffff82111715610753576107526106fc565b5b80604052505050565b600061076661060e565b9050610772828261072b565b919050565b600067ffffffffffffffff821115610792576107916106fc565b5b61079b826106eb565b9050602081019050919050565b82818337600083830152505050565b60006107ca6107c584610777565b61075c565b9050828152602081018484840111156107e6576107e56106e6565b5b6107f18482856107a8565b509392505050565b600082601f83011261080e5761080d6106e1565b5b813561081e8482602086016107b7565b91505092915050565b60006020828403121561083d5761083c610618565b5b600082013567ffffffffffffffff81111561085b5761085a61061d565b5b610867848285016107f9565b91505092915050565b7f4e487b7100000000000000000000000000000000000000000000000000000000600052601160045260246000fd5b60006108aa826106ad565b91506108b5836106ad565b92508282019050808211156108cd576108cc610870565b5b92915050565b600082825260208201905092915050565b7f45737065726520616c67756e7320736567756e646f7320616e7465732064652060008201527f7075626c69636172206e6f76616d656e74652e00000000000000000000000000602082015250565b60006109406033836108d3565b915061094b826108e4565b604082019050919050565b6000602082019050818103600083015261096f81610933565b9050919050565b600081519050919050565b7f4e487b7100000000000000000000000000000000000000000000000000000000600052602260045260246000fd5b600060028204905060018216806109c857607f821691505b6020821081036109db576109da610981565b5b50919050565b60008190508160005260206000209050919050565b60006020601f8301049050919050565b600082821b905092915050565b600060088302610a437fffffffffffffffffffffffffffffffffffffffffffffffffffffffffffffffff82610a06565b610a4d8683610a06565b95508019841693508086168417925050509392505050565b6000819050919050565b6000610a8a610a85610a80846106ad565b610a65565b6106ad565b9050919050565b6000819050919050565b610aa483610a6f565b610ab8610ab082610a91565b848454610a13565b825550505050565b600090565b610acd610ac0565b610ad8818484610a9b565b505050565b5b81811015610afc57610af1600082610ac5565b600181019050610ade565b5050565b601f821115610b4157610b12816109e1565b610b1b846109f6565b81016020851015610b2a578190505b610b3e610b36856109f6565b830182610add565b50505b505050565b600082821c905092915050565b6000610b6460001984600802610b46565b1980831691505092915050565b6000610b7d8383610b53565b9150826002028217905092915050565b610b9682610976565b67ffffffffffffffff811115610baf57610bae6106fc565b5b610bb982546109b0565b610bc4828285610b00565b600060209050601f831160018114610bf75760008415610be5578287015190505b610bef8582610b71565b865550610c57565b601f198416610c05866109e1565b60005b82811015610c2d57848901518255600182019150602085019450602081019050610c08565b86831015610c4a5784890151610c46601f891682610b53565b8355505b6001600288020188555050505b505050505050565b7f4e487b7100000000000000000000000000000000000000000000000000000000600052601260045260246000fd5b6000610c99826106ad565b9150610ca4836106ad565b925082610cb457610cb3610c5f565b5b828206905092915050565b7f4f20636f6e747261746f206e616f2074656d2066756e646f732073756669636960008201527f656e63652070617261207061676172206f207072656d696f2e00000000000000602082015250565b6000610d1b6039836108d3565b9150610d2682610cbf565b604082019050919050565b60006020820190508181036000830152610d4a81610d0e565b9050919050565b600081905092915050565b50565b6000610d6c600083610d51565b9150610d7782610d5c565b600082019050919050565b6000610d8d82610d5f565b9150819050919050565b7f4e616f20636f6e736567756920656e76696172206f207072656d696f00000000600082015250565b6000610dcd601c836108d3565b9150610dd882610d97565b602082019050919050565b60006020820190508181036000830152610dfc81610dc0565b9050919050565b60005b83811015610e21578082015181840152602081019050610e06565b60008484015250505050565b6000610e3882610976565b610e4281856108d3565b9350610e52818560208601610e03565b610e5b816106eb565b840191505092915050565b6000604082019050610e7b60008301856106b7565b8181036020830152610e8d8184610e2d565b90509392505050565b60006040820190508181036000830152610eb08185610e2d565b9050610ebf60208301846106b7565b9392505050565b610ecf81610642565b82525050565b60006040820190508181036000830152610eef8185610e2d565b9050610efe6020830184610ec6565b9392505050565b7f4e487b7100000000000000000000000000000000000000000000000000000000600052605160045260246000fdfea264697066735822122047dbb5ee38648a29f8f9b65fd1fc5112cb10bf5f16bdcb555b73f70a17aca39364736f6c63430008130033",
  "linkReferences": {},
  "deployedLinkReferences": {}
}